:100000000C94AB000C94C8000C94C8000C94C8006D
:100010000C94C8000C94C8000C94C8000C94C80040
:100020000C94C8000C94C8000C94C8000C94C80030
:100030000C94C8000C94C8000C94C8000C94C80020
:100040000C94C8000C94C8000C94C8000C94C80010
:100050000C94C8006E616E00696E660000407A10F4
:10006000F35A00A0724E18090010A5D4E80000E869
:100070007648170000E40B54020000CA9A3B0000C7
:1000800000E1F505000080969800000040420F0056
:100090000000A08601000000102700000000E80317
:1000A000000000006400000000000A0000000000E2
:1000B0000100000000002C76D888DC674F0823DFA1
:1000C000C1DFAE59E1B1B796E5E3E453C63AE65174
:1000D000997696E8E6C28426EB898C9B62ED407C9B
:1000E0006FFCEFBC9C9F40F2BAA56FA5F490055A37
:1000F0002AF75C936B6CF9676DC11BFCE0E40D475C
:10010000FEF520E6B500D0ED902E0300943577057E
:100110000080841E080000204E0A000000C80C3336
:100120003333330F986E12831141EF8D2114893BC5
:10013000E65516CFFEE6DB18D1844B381BF77C1D45
:10014000901DA4BBE424203284725E228100C9F198
:1001500024ECA1E53D2711241FBECFE5D8E0DEBF8A
:10016000CDBF10E0A0E6B0E0E4E8F4E202C0059004
:100170000D92A638B107D9F712E0A6E8B0E001C0A9
:100180001D92AE3AB107E1F70E94D4040C944012DC
:100190000C940000089523E023BF33E809C032BF68
:1001A00028B7216028BFA89508B600FEFDCF0197AB
:1001B0000097A9F713BE089589E087B93E9A3F9A40
:1001C000309A319A329A379A0895369A349BFECFF4
:1001D00024B135B1822F932F0895AF92BF92CF9261
:1001E000DF92EF92FF920F931F93CF93DF930E94C2
:1001F000E5009C01B901882777FD8095982F0E9422
:10020000AA0BA72FF82FE92F262F372F482F592F6A
:100210002093A6013093A7014093A8015093A90110
:10022000862F9A2FAF2FBE2F80932A0290932B02F6
:10023000A0932C02B0932D02CAEAD1E00F2EFAE26D
:10024000AF2EF2E0BF2EF02D0E94E5006C01B6014A
:10025000882777FD8095982F0E94AA0B7B018C013F
:1002600020912A0230912B0240912C0250912D02B4
:100270000E94A40B882344F4E0922A02F0922B02FD
:1002800000932C0210932D02C801B7012091A60102
:100290003091A7014091A8015091A9010E945A0CE8
:1002A000181644F4E092A601F092A7010093A80169
:1002B0001093A901C992D992CA15DB0529F6DF91DD
:1002C000CF911F910F91FF90EF90DF90CF90BF9053
:1002D000AF9008952F923F924F925F926F927F92CC
:1002E0008F929F92AF92BF92CF92DF92EF92FF9246
:1002F0000F931F93DF93CF93CDB7DEB76A970FB6F7
:10030000F894DEBF0FBECDBF6091A6017091A7012A
:100310008091A8019091A90120912A0230912B028D
:1003200040912C0250912D020E943F0BE62EC72EC9
:10033000182F092F6D8B7E8B8F8B988F20E030E0EC
:1003400040E05EE30E945E0CB62EA72E982E892E0A
:100350006E2D7C2D812F902F20E030E040E85EE371
:100360000E945E0C762E672E582E492E6E2D7C2D07
:10037000812F902F20E030E040EC5EE30E945E0C85
:10038000362E272E89839A836E2D7C2D812F902FD8
:1003900020E030E040E05FE30E945E0C6B837C83F2
:1003A0008D839E836E2D7C2D812F902F20E030E059
:1003B00040E25FE30E945E0C6F83788789879A87AB
:1003C0006E2D7C2D812F902F20E030E040E45FE304
:1003D0000E945E0C6D877E878F87988B6E2D7C2D9B
:1003E000812F902F20E030E040E65FE30E945E0C1A
:1003F000698B7A8B8B8B9C8B1C861B86C4C0898DEA
:100400009A8D01969A8F898FF601619171916F0192
:10041000882777FD8095982F0E94AA0B7B018C017D
:100420006B2D7A2D892D982DA80197010E945A0CC9
:1004300018163CF4898D9A8D60E070E00E94220BC2
:100440008CC0672D762D852D942DA80197010E94D3
:100450005A0C18163CF4898D9A8D61E070E00E9468
:10046000220B7BC039812A81632D722D832F922F1D
:10047000A80197010E945A0C18163CF4898D9A8D98
:1004800062E070E00E94220B68C05B814C813D817C
:100490002E81652F742F832F922FA80197010E9420
:1004A0005A0C18163CF4898D9A8D63E070E00E9416
:1004B000220B53C05F81488539852A85652F742FAB
:1004C000832F922FA80197010E945A0C18163CF412
:1004D000898D9A8D64E070E00E94220B3EC05D859C
:1004E0004E853F852889652F742F832F922FA80171
:1004F00097010E945A0C18163CF4898D9A8D65E07C
:1005000070E00E94220B29C059894A893B892C89B5
:10051000652F742F832F922FA80197010E945A0CE8
:1005200018163CF4898D9A8D66E070E00E94220BCB
:1005300014C05D894E893F89288D652F742F832FC4
:10054000922FA80197010E945A0C882334F0898DBC
:100550009A8D67E070E00E94220B898D9A8D8F3012
:10056000910509F04CCF0E9426088530E1F782E31F
:1005700090E00E94CB00EB85FC857196FC87EB87B1
:10058000E434F10589F08B859C85880F991F0F2E27
:10059000FAEACF2EF1E0DF2EF02DC80ED91E00E0D2
:1005A00010E01A8F098F30CF6A960FB6F894DEBF2D
:1005B0000FBECDBFCF91DF911F910F91FF90EF90B4
:1005C000DF90CF90BF90AF909F908F907F906F9073
:1005D0005F904F903F902F900895AF92BF92CF922F
:1005E000DF92EF92FF920F931F93DF93CF93CDB7DC
:1005F000DEB761970FB6F894DEBF0FBECDBF0F2EEA
:10060000FEE2CF2EF2E0DF2EF02D00E010E07E01C2
:100610000894E11CF11C0F2EF0E6AF2EF0E0BF2E87
:10062000F02D0E94A50980E060E00E94AA09D60191
:100630008D919D916D01EDB7FEB738970FB6F89487
:10064000FEBF0FBEEDBF3196ADB7BEB71296FC929E
:10065000EE921197B382A2821583048397838683D7
:100660000E94BF11EDB7FEB738960FB6F894FEBFE3
:100670000FBEEDBFC7010E94E3090E942608853026
:10068000E1F784EF91E00E94CB000F5F1F4F003431
:10069000110539F661960FB6F894DEBF0FBECDBFD7
:1006A000CF91DF911F910F91FF90EF90DF90CF904E
:1006B000BF90AF9008952F923F924F925F926F92AA
:1006C0007F928F929F92AF92BF92CF92DF92EF92E2
:1006D000FF920F931F93DF93CF93CDB7DEB764974D
:1006E0000FB6F894DEBF0FBECDBF0F2EF0E3CF2EB6
:1006F000F2E0DF2EF02D9601205E3F4FF6016AEF0B
:1007000070E0819191916817790708F4BC01E217B4
:10071000F307B9F7882777FD8095982F0E94AA0BD9
:10072000E62E172F082FF92E20E030E040E05EE3A0
:100730000E945E0C20E030E0A9010E94400BB62E22
:10074000A72E982E892E6E2D712F802F9F2D20E0A1
:1007500030E040E85EE30E945E0C20E030E0A9015A
:100760000E94400B762E672E582E492E6E2D712F2B
:10077000802F9F2D20E030E040EC5EE30E945E0C75
:1007800020E030E0A9010E94400B362E272E8983FD
:100790009A836E2D712F802F9F2D20E030E040E056
:1007A0005FE30E945E0C20E030E0A9010E94400B54
:1007B0006B837C838D839E836E2D712F802F9F2D65
:1007C00020E030E040E25FE30E945E0C20E030E099
:1007D000A9010E94400B6F83788789879A876E2DC5
:1007E000712F802F9F2D20E030E040E45FE30E94D6
:1007F0005E0C20E030E0A9010E94400B6B877C87F3
:100800008D879E876E2D712F802F9F2D20E030E0E9
:1008100040E65FE30E945E0C20E030E0A9010E9408
:10082000400B6F87788B898B9A8B01E010E01C8BD3
:100830000B8BF601619171916F0180E090E00E9455
:10084000A80B7B018C016B2D7A2D892D982DA80189
:1008500097010E945A0C18163CF48B899C8960E021
:1008600070E00E94220B7EC0672D762D852D942D81
:10087000A80197010E945A0C18163CF48B899C8998
:1008800061E070E00E94220B6DC039812A81632DE6
:10089000722D832F922FA80197010E945A0C1816CF
:1008A0003CF48B899C8962E070E00E94220B5AC064
:1008B0005B814C813D812E81652F742F832F922F78
:1008C000A80197010E945A0C18163CF48B899C8948
:1008D00063E070E00E94220B45C05F814885398546
:1008E0002A85652F742F832F922FA80197010E94CC
:1008F0005A0C18163CF48B899C8964E070E00E94C5
:10090000220B30C05B854C853D852E85652F742F6D
:10091000832F922FA80197010E945A0C18163CF4BD
:100920008B899C8965E070E00E94220B1BC05F856B
:10093000488939892A89652F742F832F922FA8011E
:1009400097010E945A0C18163CF48B899C8966E02A
:1009500070E00E94220B06C08B899C8967E070E0E2
:100960000E94220B8B899C8901969C8B8B8B8131F9
:10097000910509F05ECF64960FB6F894DEBF0FBE06
:10098000CDBFCF91DF911F910F91FF90EF90DF903E
:10099000CF90BF90AF909F908F907F906F905F901F
:1009A0004F903F902F900895EF92FF920F931F93D7
:1009B000CF93DF930E947D090E94A50980E060E04B
:1009C0000E94AA090E94010A0E94DC000AEA11E0C2
:1009D000C6E8D0E00F2EFEE2EF2EF2E0FF2EF02D63
:1009E0000E94ED00C801BE010E94A405CE010E9434
:1009F000D305CE01B7010E949D060E945B0389E1E9
:100A000090E00E94CB00ECCF3D0A850A5E0BC60C3D
:100A1000B80E311129149A177C1BC41F68245C2955
:100A2000962E0634A139583F1E45E34A9A50355652
:100A3000A65BDF60D465786AC06EA17212760B790E
:100A4000837B757DDD7EB67FFE7FB67FDD7E757D27
:100A5000837B0B791276A172C06E786AD465DF60F1
:100A6000A65B35569A50E34A1E45583FA1390634D5
:100A7000962E5C296824C41F7C1B9A1729143111F7
:100A8000B80EC60C5E0B850AFF7F0000617F8B0CE1
:100A9000897DF8187C7A27254076FB30E170563C3A
:100AA0006C6A1C47F1623351815A815A3351F162A9
:100AB0001C476C6A563CE170FB30407627257C7AF7
:100AC000F818897D8B0C617F0000FE7F75F3617FD4
:100AD00008E7897DD9DA7C7A05CF4076AAC3E17030
:100AE000E4B86C6ACDAEF1627FA5815A0F9D335197
:100AF00094951C471F8F563CC089FB308485272561
:100B00007782F8189F808B0C000080004000C000A6
:100B10002000A0006000E000100090005000D00015
:100B20003000B0007000F000080088004800C800E5
:100B30002800A8006800E800180098005800D800B5
:100B40003800B8007800F8003F922F921F930F935F
:100B5000DF93CF93DC01EB019927E8E0FAE000E4B2
:100B600010E0259135914D915D91B503B0012C03B5
:100B70001001691FBC03790B300C611D791FDA036A
:100B8000790B300C611D791F69937993699379937F
:100B90000150104031F7CF91DF910F911F912F90AD
:100BA0003F90112408953F922F925F924F927F922F
:100BB0006F929F928F92BF92AF92DF92CF92FF92ED
:100BC000EF921F930F93DF93CF93FC0181E090E0AE
:100BD000A0E2B0E004E0809F6001909FD00C7C0117
:100BE0009F938F93EF01A09FC00DD11DB09FD00D9B
:100BF000FF93EF93BB24AA249927008111811595B7
:100C000007956881798175956795A801061B170B73
:100C1000460F571F41935193208131813595279578
:100C20006A817B8175956795A901261B370B460F55
:100C3000571F419351930F01E8E8FAE0EA0DFB1DBD
:100C40004591559165917591F001950320010C0333
:100C50001001491E9C03590A300C411C591ED8032F
:100C6000590A300C411C591EB70340012E033001B4
:100C7000891EBE03990A700C811C991EFA03990AF9
:100C8000700C811C991E260C371C481C591C49925B
:100C90005992B50320012C031001491EBC03590AC7
:100CA000300C411C591EDA03590A300C411C591EE4
:100CB000970340010E033001891E9E03990A700CB0
:100CC000811C991EF803990A700C811C991E261824
:100CD00037084808590849925992AC0CBD1CA7FE28
:100CE0008CCF04E0A09FC00DD11DE00DF11DB09F81
:100CF000D00DF00D81E0E81AF90A09F07BCFEF91F1
:100D0000FF918F919F91880F991FB695A795109687
:100D100009F060CFCF91DF910F911F91EF90FF907D
:100D2000CF90DF90AF90BF908F909F906F907F900B
:100D30004F905F902F903F9008953F922F925F9237
:100D40004F927F926F929F928F92BF92AF921F931A
:100D50000F93DF93CF935C01EB01E8E0FBE0992771
:100D600000E210E0A591B591AA0DBB1D2D913D911A
:100D70004D915D91B30320012A031001491EBA036E
:100D8000590A300C411C591EBA03590A300C411C37
:100D9000591ED50340014C033001891EDC03990A1A
:100DA000700C811C991EDC03990A700C811C991E21
:100DB000260C371C481C591C662477248824992447
:100DC00021E030E04427552770E1220C331C441CFD
:100DD000551C661C771C881C991C220C331C441C57
:100DE000551C661C771C881C991C2AF4620E731E05
:100DF000841E951E04C0621A730A840A950A220F83
:100E0000331F441F287F256097FC22507A95E9F60E
:100E10004695379527954695379527952993399384
:100E20000150104009F09ECFCF91DF910F911F919B
:100E3000AF90BF908F909F906F907F904F905F90FA
:100E40002F903F9011240895AC019927D703F0010A
:100E50004E03D001E91FDE03F90BB00DE11DF91FB0
:100E6000FC03F90BB00DE11DF91FCF01112408950A
:100E70000FB680959AE0F89479E87A95F1F708F042
:100E8000C69808F4C69A86959A95B1F70FBE08954C
:100E9000FC018591882311F0EBDFFBCF0895332708
:100EA000E0E2F0E267FF08C0619597FF05C0EDE260
:100EB00080959095811D911D47FF02C04195F0E3FB
:100EC00050E17727880F991F771F761710F0761B50
:100ED00083955A95B9F77A3008F0795F705D7F9302
:100EE00033958517950761F7ED3211F4EF9333953C
:100EF000341718F4FF933395FBCF8F91B9DF3A95F0
:100F0000E1F70895ADB7BEB71396ED91FD918591C8
:100F1000803021F0853219F0ABDFF9CF089540E041
:100F2000E89485918532C1F3803311F468948591FA
:100F30008A3348F4805390F3440F042E440F440F37
:100F4000400D480FF4CF782F8D919D91733621F38A
:100F50007337A1F0783560E149F075376AE031F018
:100F6000743666EF19F0723662E0C1F60EF4419500
:100F7000FF93EF9394DFEF91FF91C9CFFF93EF932E
:100F800087DFF9CF0FB680E8F894B599FECFB59B0F
:100F9000FECF95E49A95F1F79AE89A95F1F7869540
:100FA000B59B8068C8F70FBE0895FC0151E0EADFE9
:100FB0008D3079F0883041F05617C8F78032B8F399
:100FC0008193539555DFF3CF513089F35A9531977B
:100FD000F9CF4EDF10820895FC01A191B191222733
:100FE0003327E8948C918D3211F468941FC08032BD
:100FF000F8F029F41196F6CF8C918132D8F0813631
:1010000008F080528053A0F08A3018F0813180F0CF
:101010008750841768F491E1551B08F4540F5795D5
:10102000379527959A95C9F7280F311D1196E4CF6A
:10103000882706C081E026F420953095211D311DBA
:10104000B293A293FB012193319308951F93CF9301
:10105000DF9380E090E041E050E06AB301969A01AE
:10106000082E02C0220F331F0A94E2F72095322F78
:1010700036233ABB3BB323232BBB8430910569F75E
:1010800080E090E041E050E067B39A01082E02C092
:10109000220F331F0A94E2F7322F3095362337BBE5
:1010A00038B3232B28BB01968430910569F740E0C3
:1010B00050E0E1E0F0E0A0E0B0E02AB34F5F5F4F26
:1010C000EA01CF01042E02C0880F991F0A94E2F7AB
:1010D000182F822B8ABBB09B0EC0CD0126B3019680
:1010E000BC0130E0082E02C0359527950A94E2F73E
:1010F00020FD0FC002C060E070E02197CC0FDD1F23
:10110000CC0FDD1F6C0F7D1FEB01CA58DF4F8881AC
:101110000BC08330910511F79AB3109519231ABBB0
:101120004430510551F680E1DF91CF911F91089530
:101130003F924F925F926F927F928F929F92AF9267
:10114000BF92CF92DF92EF92FF920F931F93DF93A4
:10115000CF93CDB7DEB76E970FB6F894DEBF0FBE54
:10116000CDBF81E090E041E050E06AB39A01082EE3
:1011700002C0220F331F0A94E2F72095322F362344
:101180003ABB3BB323232BBB01968530910569F70E
:1011900080E090E041E050E067B39A01082E02C081
:1011A000220F331F0A94E2F7322F3095362337BBD4
:1011B00038B3232B28BB01968430910569F7EE24C0
:1011C000FF24E394882499248394CC24DD243E01D5
:1011D0000894611C711C0F2EF7E64F2EF0E05F2E75
:1011E000F02DC301A62C392E2AB3C4010E2C02C047
:1011F000880F991F0A94E2F7B82E822B8ABB8601CA
:1012000086B390E0002E02C0959587950A94E2F788
:1012100080FD2BC00E94A5098DB79EB708970FB619
:10122000F8949EBF0FBE8DBFEDB7FEB73196ADB738
:10123000BEB712967C926E92119753824282F582CB
:10124000E482178306830E94BF118DB79EB708966C
:101250000FB6F8949EBF0FBE8DBFC601B6010E94A7
:10126000AA098A2D932D0E94E3090F5F1F4F0430B6
:10127000110531F68AB3B094B822BABA0894E11CC9
:10128000F11C95E0E916F10409F0AECF6E960FB6A9
:10129000F894DEBF0FBECDBFCF91DF911F910F91AC
:1012A000FF90EF90DF90CF90BF90AF909F908F9086
:1012B0007F906F905F904F903F900895662311F05C
:1012C000909A01C09098919885BB8FEF84BB929AB9
:1012D000000000000000929808959098919A14BA26
:1012E00093B3929A00000000000014BA93B392984E
:1012F00099239CF30E945E090895889A899A8A9A94
:1013000080E190E00E94CB0080E360E00E945E09F3
:1013100085E090E00E94CB0080E360E00E945E09DF
:1013200081E090E00E94CB008CE360E00E946D09B8
:101330008CE060E00E946D0986E060E00E946D092B
:1013400081E060E00E946D09089581E060E00E9404
:101350006D0908951F9318E2819F102D1124160F17
:1013600082E060E00E946D09112331F084E160E0C9
:101370000E946D091150D1F71F91089561E00E94FC
:101380006D0908950F931F93CF93DF93FC01049190
:101390000023A1F0EC01219610E007C01F5F183078
:1013A00021F481E060E00E94AA09802F61E00E94A0
:1013B0006D09FE0121960491002381F7DF91CF9101
:1013C0001F910F9108950F931F93CF93DF93EC011B
:1013D0001881112389F0219600E007C00F5F0830C3
:1013E00021F481E060E00E94AA09812F61E00E945F
:1013F0006D091991112391F7DF91CF911F910F91F1
:10140000089580E460E00E946D0980E061E00E9440
:101410006D0980E061E00E946D0980E061E00E945A
:101420006D0980E061E00E946D0980E061E00E944A
:101430006D0980E061E00E946D0980E061E00E943A
:101440006D098FE161E00E946D0988E460E00E940F
:101450006D0980E061E00E946D0980E061E00E941A
:101460006D0980E061E00E946D0980E061E00E940A
:101470006D0980E061E00E946D0980E061E00E94FA
:101480006D098FE161E00E946D098FE161E00E94CA
:101490006D0980E560E00E946D0980E061E00E94D6
:1014A0006D0980E061E00E946D0980E061E00E94CA
:1014B0006D0980E061E00E946D0980E061E00E94BA
:1014C0006D098FE161E00E946D098FE161E00E948A
:1014D0006D098FE161E00E946D0988E560E00E947E
:1014E0006D0980E061E00E946D0980E061E00E948A
:1014F0006D0980E061E00E946D0980E061E00E947A
:101500006D098FE161E00E946D098FE161E00E9449
:101510006D098FE161E00E946D098FE161E00E9439
:101520006D0980E660E00E946D0980E061E00E9444
:101530006D0980E061E00E946D0980E061E00E9439
:101540006D098FE161E00E946D098FE161E00E9409
:101550006D098FE161E00E946D098FE161E00E94F9
:101560006D098FE161E00E946D0988E660E00E94EC
:101570006D0980E061E00E946D0980E061E00E94F9
:101580006D098FE161E00E946D098FE161E00E94C9
:101590006D098FE161E00E946D098FE161E00E94B9
:1015A0006D098FE161E00E946D098FE161E00E94A9
:1015B0006D0980E760E00E946D0980E061E00E94B3
:1015C0006D098FE161E00E946D098FE161E00E9489
:1015D0006D098FE161E00E946D098FE161E00E9479
:1015E0006D098FE161E00E946D098FE161E00E9469
:1015F0006D098FE161E00E946D0988E760E00E945B
:101600006D098FE161E00E946D098FE161E00E9448
:101610006D098FE161E00E946D098FE161E00E9438
:101620006D098FE161E00E946D098FE161E00E9428
:101630006D098FE161E00E946D098FE161E00E9418
:101640006D0908951F93CF93DF93EC01162F80E06F
:101650006C2F0E94AA09C830D1054CF0CE0168E079
:1016600070E00E944710682F81E00E94AA09812F34
:1016700061E00E946D09DF91CF911F91089550584C
:10168000BB27AA270ED0DCC0CDD030F0D2D020F0BE
:1016900031F49F3F11F41EF4C2C00EF4E095E7FB55
:1016A000B8C0E92FDED080F3BA176207730784074A
:1016B000950718F071F49EF5F6C00EF4E0950B2E28
:1016C000BA2FA02D0B01B90190010C01CA01A00194
:1016D0001124FF27591B99F0593F50F4503E68F1EF
:1016E0001A16F040A22F232F342F4427585FF3CF30
:1016F000469537952795A795F0405395C9F77EF401
:101700001F16BA0B620B730B840BBAF09150A1F049
:10171000FF0FBB1F661F771F881FC2F70EC0BA0FCF
:10172000621F731F841F48F4879577956795B79557
:10173000F7959E3F08F0B3CF9395880F08F099274F
:10174000EE0F97958795089540D008F481E00895AD
:10175000E89409C097FB3EF490958095709561954B
:101760007F4F8F4F9F4F9923A9F0F92F96E9BB2701
:101770009395F695879577956795B795F111F8CF7D
:10178000FAF4BB0F11F460FF1BC06F5F7F4F8F4FE8
:101790009F4F16C0882311F096E911C0772321F0DE
:1017A0009EE8872F762F05C0662371F096E8862F76
:1017B00070E060E02AF09A95660F771F881FDAF7CD
:1017C000880F9695879597F90895990F0008550FFA
:1017D000AA0BE0E8FEEF16161706E807F907C0F0B7
:1017E00012161306E407F50798F0621B730B840BBF
:1017F000950B39F40A2661F0232B242B252B21F499
:1018000008950A2609F4A140A6958FEF811D811D38
:10181000089597F99F6780E870E060E008959FEF72
:1018200080EC089500240A94161617061806090677
:10183000089500240A941216130614060506089546
:10184000092E0394000C11F4882352F0BB0F40F4CE
:10185000BF2B11F460FF04C06F5F7F4F8F4F9F4F0E
:10186000089557FD9058440F551F59F05F3F71F090
:101870004795880F97FB991F61F09F3F79F08795F7
:101880000895121613061406551FF2CF4695F1DF80
:1018900008C0161617061806991FF1CF8695710510
:1018A000610508940895E894BB2766277727CB0144
:1018B00097F908958ADF08F48FEF08950BD0C0CF11
:1018C000B1DF28F0B6DF18F0952309F0A2CFA7CF3B
:1018D0001124EACFC6DFA0F3959FD1F3950F50E016
:1018E000551F629FF001729FBB27F00DB11D639FD2
:1018F000AA27F00DB11DAA1F649F6627B00DA11D78
:10190000661F829F2227B00DA11D621F739FB00D1D
:10191000A11D621F839FA00D611D221F749F33278D
:10192000A00D611D231F849F600D211D822F762F26
:101930006A2F11249F5750408AF0E1F088234AF023
:10194000EE0FFF1FBB1F661F771F881F915050406F
:10195000A9F79E3F510570F05CCFA6CF5F3FECF337
:10196000983EDCF3869577956795B795F795E7955B
:101970009F5FC1F7FE2B880F911D9695879597F96C
:101980000895A3E1B0E0E7ECFCE00C945A106C0180
:101990007F876E87FC0117821682838181FD04C0D8
:1019A0006FC34C855D8504C01E010894211C311C49
:1019B000F6019381EE85FF8593FD859193FF8191DB
:1019C000FF87EE87882309F457C3853241F493FDDE
:1019D000859193FF8191FF87EE87853259F490E0DE
:1019E000B6014A8B5B8B0E9493114A895B895D87A4
:1019F0004C87D7CF10E0FF2400E00032B0F48B32E8
:101A000069F08C3228F4803251F0833271F40BC0CB
:101A10008D3239F0803349F401602CC002600460DB
:101A200029C0086027C0006125C007FD2EC0282FEF
:101A300020532A3098F406FF08C0812F880F182FF2
:101A4000110F110F180F120F15C08F2D880FF82EC0
:101A5000FF0CFF0CF80EF20E00620CC08E3221F467
:101A600006FD0AC3006406C08C3611F4006802C08B
:101A7000883659F4EE85FF8593FD859193FF81911A
:101A8000FF87EE87882309F0B8CF982F95549330BD
:101A900018F40061805E06C0982F9556933008F0C8
:101AA0009BC10F7E06FF16E06FE3E62EE02285362F
:101AB00019F4F0E4EF2A07C0863619F420E8E22A88
:101AC00002C011111150E7FE06C01C3340F4912EE4
:101AD000939427E00BC0183030F4212F06C027E084
:101AE0003CE3932E03C027E017E09924CA01049633
:101AF0009D878C87FA016081718182819381A10128
:101B0000092D0E94A5105C016980262D30E0398BDB
:101B1000288B60FE03C0388933FF06C0E1FC06C095
:101B2000E2FE06C000E205C00DE203C00BE201C008
:101B300000E0888999898C7090700097C1F100232A
:101B400011F084E001C083E08F1558F4F81AE3FC2B
:101B500009C080E290E0B6010E949311FA94C9F79F
:101B600001C0FF24002329F0802F90E0B6010E94DD
:101B70009311888983FD03C008E510E00EC004E5D9
:101B800010E00BC0A114B10409F0805290E0B6013E
:101B90000E9493110F5F1F4F05C0AE2CBB2490E134
:101BA000A922BB24F8018491882361F762C2E7FE71
:101BB0000EC09A0CF889F4FF04C08A81813309F4BD
:101BC0009A94191454F5292D293050F52DC0E6FCAE
:101BD0002BC0812F90E08A159B054CF03CEFA3169B
:101BE0003FEFB30624F080E8E82A01C0115011232A
:101BF00049F0E2E0F0E0EC0FFD1FE10FF11D808104
:101C00008033A1F3E7FE10C0912E9394812F90E0D2
:101C1000A816B90644F41A1907C09924939404C06D
:101C200098E0992E01C010E0E7FE07C01A141B04CB
:101C30003CF495012F5F3F4F05C025E030E002C026
:101C400021E030E0002311F02F5F3F4F112329F0F6
:101C5000812F90E00196280F391F8F2D90E02817D3
:101C6000390714F4F21A01C0FF244E2C5524C20186
:101C700089709070009749F406C080E290E0B60148
:101C80000E949311FA94FF20C1F7002329F0802FBE
:101C900090E0B6010E94931143FC09C006C080E3A6
:101CA00090E0B6010E949311FA94FF20C1F7E7FE7D
:101CB00046C03501B7FE02C066247724250108948A
:101CC000411C511C46185708420C531CF501E919D8
:101CD000F1094F01812F90E000271127081B190BF4
:101CE000FFEF6F16FFEF7F0629F48EE290E0B6015A
:101CF0000E949311A614B70434F0861497041CF4C0
:101D0000F201808101C080E30894610871080894A1
:101D1000411C511C601671062CF090E0B6010E9427
:101D20009311DECF6A147B0441F49A81963320F438
:101D3000953319F4F889F4FF81E390E049C08A8172
:101D4000813311F02FEE622290E0B6010E949311D0
:101D5000112389F08EE290E0B6010E94931102E017
:101D6000F101E00FF11D0F5F808190E0B6010E944C
:101D700093111150A9F744FE03C085E490E002C01E
:101D800085E690E0B6010E949311B7FC05C0A1144E
:101D9000B10441F464FE06C0B094A194B108B394B8
:101DA0008DE201C08BE290E0B6010E94931180E3C6
:101DB00005C08F5FE6EFFFEFAE0EBF1EFAE0AF1675
:101DC000B104BCF790E0B6010E949311C501C09622
:101DD000B6010E9493114DC1833631F0833789F0EB
:101DE000833509F059C022C09A012E5F3F4F3D87CD
:101DF0002C87FA0180818983310181E0A82EB12CE2
:101E000013C09A012E5F3F4F3D872C87FA016080F7
:101E1000718006FF03C0612F70E002C06FEF7FEF9B
:101E2000C3010E9488115C010F7714C09A012E5FD4
:101E30003F4F3D872C87FA016080718006FF03C009
:101E4000612F70E002C06FEF7FEFC3010E947D1130
:101E50005C01006803FD1CC006C080E290E0B60192
:101E60000E949311FA948F2D90E0A816B906A8F35A
:101E70000FC0F30107FD859107FF81913F0190E0BD
:101E8000B6010E949311F110FA940894A108B108C8
:101E9000A114B10471F7EDC0843611F0893661F5F3
:101EA00007FF0BC09A012C5F3F4F3D872C87FA013B
:101EB00060817181828193810CC09A012E5F3F4FB6
:101EC0003D872C87FA0160817181882777FD809595
:101ED000982F0F7697FF08C0909580957095619523
:101EE0007F4F8F4F9F4F0068A1012AE030E00E9492
:101EF000E211982E921841C0853721F40F7E2AE016
:101F000030E020C0097F8F36A9F0803720F4883573
:101F100009F0B2C00BC0803721F0883709F0ACC09F
:101F200001C0006104FF09C0046007C004FF08C0CD
:101F3000066006C028E030E005C020E130E002C0C5
:101F400020E132E007FF0AC0CA0104969D878C8712
:101F5000FA01608171818281938109C0CA01029670
:101F60009D878C87FA016081718180E090E0A101FA
:101F70000E94E211982E92180F7706FF09C00E7F7B
:101F8000911630F404FF06C002FD04C00F7E02C0AB
:101F9000E92C01C0E12E802F90E004FF0CC0FE016F
:101FA000E90DF11D2081203311F4097E09C0E3946D
:101FB00002FF06C004C086789070009709F0E39491
:101FC000A02EBB2403FD14C000FF0FC0EF1428F4A3
:101FD000192D1F0D1E19EF2C08C0192D06C080E207
:101FE00090E0B6010E949311E394EF14C0F304C093
:101FF000EF1410F4FE1801C0FF24A4FE0FC080E30C
:1020000090E0B6010E949311A2FE1FC0A1FE03C082
:1020100088E590E010C088E790E00DC0C5018678A3
:102020009070009791F0A1FC02C080E201C08BE2A9
:1020300007FD8DE290E0B6010E94931106C080E397
:1020400090E0B6010E94931111509116C0F39A943A
:10205000F101E90DF11D808190E0B6010E9493111C
:102060009920A9F706C080E290E0B6010E94931182
:10207000FA94FF20C1F795CCF6012681378102C082
:102080002FEF3FEFC9016396E2E10C94761097FBC6
:10209000092E07260AD077FD04D043D006D00020B1
:1020A0001AF4709561957F4F0895F6F79095819594
:1020B0009F4F08952F923F924F925F926F927F921F
:1020C0008F929F92AF92BF92CF92DF92EF92FF9248
:1020D0000F931F93CF93DF93CDB7DEB7CA1BDB0BF4
:1020E0000FB6F894DEBF0FBECDBF09942A88398899
:1020F00048885F846E847D848C849B84AA84B984A0
:10210000C884DF80EE80FD800C811B81AA81B981AB
:10211000CE0FD11D0FB6F894DEBF0FBECDBFED01BF
:102120000895AA1BBB1B51E107C0AA1FBB1FA6171E
:10213000B70710F0A61BB70B881F991F5A95A9F770
:1021400080959095BC01CD010895283008F027E0D6
:102150003327DA01990F311D87FD916000966105E3
:10216000710539F432602E5F3D9330E32A95E1F733
:1021700008959F3F30F080387105610509F03C5F9C
:102180003C5F3D93913008F08068911DDF93CF93C1
:102190001F930F93FF92EF92192F987F9695E92F37
:1021A00096959695E90FFF27EA54FF4F9927332715
:1021B000EE24FF24A701E70105900894079428F472
:1021C000360FE71EF81E491F511D660F771F881F27
:1021D000991F0694A1F70590079428F4E70EF81EBE
:1021E000491F561FC11D770F881F991F661F069430
:1021F000A1F70590079428F4F80E491F561FC71F32
:10220000D11D880F991F661F771F0694A1F70590AF
:10221000079420F4490F561FC71FD81F990F661F38
:10222000771F881F0694A9F784911095177041F0C5
:10223000D695C79557954795F794E7941A95C1F7A2
:10224000ECE5F0E0689415901591359165919591C4
:1022500005907FE27395E118F10A430B560BC90B09
:10226000D009C0F7E10CF11E431F561FC91FD01D36
:102270007EF4703311F48A95E6CFE894015030F083
:10228000080F0AF40027021708F4202F2395022FC5
:102290007A3328F079E37D932A95E9F710C07D938E
:1022A0002A9589F60694979567953795179517940B
:1022B000E118F10A430B560BC90BD00998F023958E
:1022C0007E9173957A3308F070E37C932013B8F70E
:1022D0007E9170617D9330F0839571E37D9370E31F
:1022E0002A95E1F71124EF90FF900F911F91CF9164
:1022F000DF91992787FD90950895FC010590615025
:1023000070400110D8F7809590958E0F9F1F08950B
:10231000FC016150704001900110D8F780959095B4
:102320008E0F9F1F08950F931F93CF93DF938C0100
:10233000EB018B8181FF1BC082FF0DC02E813F818D
:102340008C819D812817390764F4E881F981019314
:10235000F983E88306C0E885F985802F0995009701
:1023600031F48E819F8101969F838E8302C00FEF8F
:102370001FEFC801DF91CF911F910F910895AEE03B
:10238000B0E0E5ECF1E10C9468100D891E8986E05F
:102390008C831A8309838FEF9FE79E838D839E0131
:1023A000275E3F4FCE0101966F89788DA9010E946B
:1023B000C10CEF81F885E00FF11F10822E96E4E04A
:1023C0000C948410FA01AA27283051F1203181F1B0
:1023D000E8946F936E7F6E5F7F4F8F4F9F4FAF4F2D
:1023E000B1E03ED0B4E03CD0670F781F891F9A1F40
:1023F000A11D680F791F8A1F911DA11D6A0F711DF4
:10240000811D911DA11D20D009F468943F912AE0FF
:10241000269F11243019305D3193DEF6CF010895E7
:10242000462F4770405D4193B3E00FD0C9F7F6CF18
:10243000462F4F70405D4A3318F0495D31FD4052E0
:10244000419302D0A9F7EACFB4E0A6959795879576
:1024500077956795BA95C9F7009761057105089555
:102460009B01AC010A2E0694579547953795279501
:10247000BA95C9F7620F731F841F951FA01D089599
:04248000F894FFCFFE
:1024840025643A20256400726F772025642C20632C
:102494006F6C20256400030F040E020D0C0B010A5F
:0624A4000908000706050F
:00000001FF
